:06007C00F5A07F107E27B5
:0B008200EF1FAC0670011E4C70F62250
:10005B00AB05AA048F828E83E5821582AE83700274
:10006B0015834E600BB295AF03AE0212008280E88F
:01007B002262
:1000030075A0FEE4F508F509AFA07801EF088001BB
:1000130023D8FD12007C0509E50970020508C39485
:1000230007E508940040E1E4F508F509AFA078017D
:10003300EF08800103D8FD12007C0509E509700271
:100043000508C39407E508940040E17D327C007FF6
:06005300647E0012005B58
:0200590080A87D
:0300000002008D6E
:0C008D00787FE4F6D8FD758109020003BD
:00000001FF
