:06009F00F5A07F107E2792
:0B00A500EF1FAC0670011E4C70F6222D
:08007600AD09AC087F057E0016
:10007E00AB05AA048F828E83E5821582AE83700251
:10008E0015834E600BB295AF03AE021200A580E849
:01009E00223F
:1000030075A0FEE4FBFAAFA07801EF08800123D8C6
:10001300FD12009F0BBB00010AEB64074A70E7E483
:10002300FAFBAFA07801EF08800103D8FD12009F0F
:100033000BBB00010AEB64074A70E77508007509FA
:100043000A1200760509E50970020508C394C8E59C
:1000530008940040EC7508007509C8D3E509940AB3
:10006300E5089400409A120076E509150970EC152D
:030073000880E81A
:030000000200B04B
:0C00B000787FE4F6D8FD7581090200039A
:00000001FF
