:06008500F5A07F107E27AC
:0B008B00EF1FAC0670011E4C70F62247
:10006400AB05AA048F828E83E5821582AE8370026B
:1000740015834E600BB295AF03AE0212008B80E87D
:010084002259
:1000030075A0FEE4FBFAAFA07801EF08800123D8C6
:10001300FD1200850BBB00010AEB64074A70E7E49D
:10002300FAFBAFA07801EF08800103D8FD12008529
:100033000BBB00010AEB64074A70E77508007509FA
:100043000AC3E5099490E508940150B4AD09AC08DE
:100053007F0A7E001200640509E50970E405088043
:01006300E0BC
:0300000002009665
:0C009600787FE4F6D8FD758109020003B4
:00000001FF
