:1001130020200A003F0006005B004F0066006D00D0
:100123007D0007007F006F0077007C0039005E00D0
:03013300790071DF
:0B013700EF1FAC0670011E4C70F6229A
:10008F00E4F508F509E5087054E509B40800504D8A
:10009F009000A6F82828730200BE0200C20200CA10
:1000AF000200CE0200D60200DA0200E20200E6C22F
:1000BF00A28002D2A2C2A3C2A48022C2A28002D274
:1000CF00A2D2A3C2A48016C2A28002D2A2C2A3D27D
:1000DF00A4800AC2A28002D2A2D2A3D2A4E509258B
:1000EF00E0240AF808E6F5807F587E1B120137E4FA
:1000FF00F5800509E50970020508C39408E5089421
:03010F000040822B
:0101120022CA
:0501420012008F80FB9C
:03000000020003F8
:0C000300787FE4F6D8FD75812902004AE0
:10000F00020142E493A3F8E493A34003F68001F2C4
:10001F0008DFF48029E493A3F85407240CC8C333F2
:10002F00C4540F4420C8834004F456800146F6DFC1
:10003F00E4800B0102040810204080900113E47E3D
:10004F00019360BCA3FF543F30E509541FFEE493B6
:10005F00A360010ECF54C025E060A840B8E493A37D
:10006F00FAE493A3F8E493A3C8C582C8CAC583CAA8
:10007F00F0A3C8C582C8CAC583CADFE9DEE780BE60
:0101360000C8
:00000001FF
